{
  "_format": "hh-sol-artifact-1",
  "contractName": "LagrangeDAOToken",
  "sourceName": "contracts/LagrangeDAOToken.sol",
  "abi": [
    {
      "inputs": [],
      "stateMutability": "nonpayable",
      "type": "constructor"
    },
    {
      "anonymous": false,
      "inputs": [
        {
          "indexed": true,
          "internalType": "address",
          "name": "owner",
          "type": "address"
        },
        {
          "indexed": true,
          "internalType": "address",
          "name": "spender",
          "type": "address"
        },
        {
          "indexed": false,
          "internalType": "uint256",
          "name": "value",
          "type": "uint256"
        }
      ],
      "name": "Approval",
      "type": "event"
    },
    {
      "anonymous": false,
      "inputs": [
        {
          "indexed": true,
          "internalType": "address",
          "name": "previousOwner",
          "type": "address"
        },
        {
          "indexed": true,
          "internalType": "address",
          "name": "newOwner",
          "type": "address"
        }
      ],
      "name": "OwnershipTransferred",
      "type": "event"
    },
    {
      "anonymous": false,
      "inputs": [
        {
          "indexed": true,
          "internalType": "address",
          "name": "from",
          "type": "address"
        },
        {
          "indexed": true,
          "internalType": "address",
          "name": "to",
          "type": "address"
        },
        {
          "indexed": false,
          "internalType": "uint256",
          "name": "value",
          "type": "uint256"
        }
      ],
      "name": "Transfer",
      "type": "event"
    },
    {
      "inputs": [],
      "name": "INITAL_AMOUNT",
      "outputs": [
        {
          "internalType": "uint256",
          "name": "",
          "type": "uint256"
        }
      ],
      "stateMutability": "view",
      "type": "function"
    },
    {
      "inputs": [],
      "name": "TOKEN_CAP",
      "outputs": [
        {
          "internalType": "uint256",
          "name": "",
          "type": "uint256"
        }
      ],
      "stateMutability": "view",
      "type": "function"
    },
    {
      "inputs": [
        {
          "internalType": "address",
          "name": "owner",
          "type": "address"
        },
        {
          "internalType": "address",
          "name": "spender",
          "type": "address"
        }
      ],
      "name": "allowance",
      "outputs": [
        {
          "internalType": "uint256",
          "name": "",
          "type": "uint256"
        }
      ],
      "stateMutability": "view",
      "type": "function"
    },
    {
      "inputs": [
        {
          "internalType": "address",
          "name": "spender",
          "type": "address"
        },
        {
          "internalType": "uint256",
          "name": "amount",
          "type": "uint256"
        }
      ],
      "name": "approve",
      "outputs": [
        {
          "internalType": "bool",
          "name": "",
          "type": "bool"
        }
      ],
      "stateMutability": "nonpayable",
      "type": "function"
    },
    {
      "inputs": [
        {
          "internalType": "address",
          "name": "account",
          "type": "address"
        }
      ],
      "name": "balanceOf",
      "outputs": [
        {
          "internalType": "uint256",
          "name": "",
          "type": "uint256"
        }
      ],
      "stateMutability": "view",
      "type": "function"
    },
    {
      "inputs": [],
      "name": "cap",
      "outputs": [
        {
          "internalType": "uint256",
          "name": "",
          "type": "uint256"
        }
      ],
      "stateMutability": "view",
      "type": "function"
    },
    {
      "inputs": [],
      "name": "decimals",
      "outputs": [
        {
          "internalType": "uint8",
          "name": "",
          "type": "uint8"
        }
      ],
      "stateMutability": "view",
      "type": "function"
    },
    {
      "inputs": [
        {
          "internalType": "address",
          "name": "spender",
          "type": "address"
        },
        {
          "internalType": "uint256",
          "name": "subtractedValue",
          "type": "uint256"
        }
      ],
      "name": "decreaseAllowance",
      "outputs": [
        {
          "internalType": "bool",
          "name": "",
          "type": "bool"
        }
      ],
      "stateMutability": "nonpayable",
      "type": "function"
    },
    {
      "inputs": [
        {
          "internalType": "address",
          "name": "spender",
          "type": "address"
        },
        {
          "internalType": "uint256",
          "name": "addedValue",
          "type": "uint256"
        }
      ],
      "name": "increaseAllowance",
      "outputs": [
        {
          "internalType": "bool",
          "name": "",
          "type": "bool"
        }
      ],
      "stateMutability": "nonpayable",
      "type": "function"
    },
    {
      "inputs": [
        {
          "internalType": "address",
          "name": "holder",
          "type": "address"
        }
      ],
      "name": "initialize",
      "outputs": [],
      "stateMutability": "nonpayable",
      "type": "function"
    },
    {
      "inputs": [],
      "name": "initialized",
      "outputs": [
        {
          "internalType": "bool",
          "name": "",
          "type": "bool"
        }
      ],
      "stateMutability": "view",
      "type": "function"
    },
    {
      "inputs": [
        {
          "internalType": "address",
          "name": "to",
          "type": "address"
        },
        {
          "internalType": "uint256",
          "name": "amount",
          "type": "uint256"
        }
      ],
      "name": "mint",
      "outputs": [],
      "stateMutability": "nonpayable",
      "type": "function"
    },
    {
      "inputs": [],
      "name": "name",
      "outputs": [
        {
          "internalType": "string",
          "name": "",
          "type": "string"
        }
      ],
      "stateMutability": "view",
      "type": "function"
    },
    {
      "inputs": [],
      "name": "owner",
      "outputs": [
        {
          "internalType": "address",
          "name": "",
          "type": "address"
        }
      ],
      "stateMutability": "view",
      "type": "function"
    },
    {
      "inputs": [],
      "name": "renounceOwnership",
      "outputs": [],
      "stateMutability": "nonpayable",
      "type": "function"
    },
    {
      "inputs": [],
      "name": "symbol",
      "outputs": [
        {
          "internalType": "string",
          "name": "",
          "type": "string"
        }
      ],
      "stateMutability": "view",
      "type": "function"
    },
    {
      "inputs": [],
      "name": "totalSupply",
      "outputs": [
        {
          "internalType": "uint256",
          "name": "",
          "type": "uint256"
        }
      ],
      "stateMutability": "view",
      "type": "function"
    },
    {
      "inputs": [
        {
          "internalType": "address",
          "name": "to",
          "type": "address"
        },
        {
          "internalType": "uint256",
          "name": "amount",
          "type": "uint256"
        }
      ],
      "name": "transfer",
      "outputs": [
        {
          "internalType": "bool",
          "name": "",
          "type": "bool"
        }
      ],
      "stateMutability": "nonpayable",
      "type": "function"
    },
    {
      "inputs": [
        {
          "internalType": "address",
          "name": "from",
          "type": "address"
        },
        {
          "internalType": "address",
          "name": "to",
          "type": "address"
        },
        {
          "internalType": "uint256",
          "name": "amount",
          "type": "uint256"
        }
      ],
      "name": "transferFrom",
      "outputs": [
        {
          "internalType": "bool",
          "name": "",
          "type": "bool"
        }
      ],
      "stateMutability": "nonpayable",
      "type": "function"
    },
    {
      "inputs": [
        {
          "internalType": "address",
          "name": "newOwner",
          "type": "address"
        }
      ],
      "name": "transferOwnership",
      "outputs": [],
      "stateMutability": "nonpayable",
      "type": "function"
    }
  ],
  "bytecode": "0x60a06040526000600560146101000a81548160ff0219169083151502179055503480156200002c57600080fd5b506b033b2e3c9fd0803ce80000006040518060400160405280601281526020017f4c616772616e67652044414f20546f6b656e00000000000000000000000000008152506040518060400160405280600381526020017f4c414400000000000000000000000000000000000000000000000000000000008152508160039081620000b7919062000489565b508060049081620000c9919062000489565b5050506000811162000112576040517f08c379a00000000000000000000000000000000000000000000000000000000081526004016200010990620005d1565b60405180910390fd5b8060808181525050506200013b6200012f6200014160201b60201c565b6200014960201b60201c565b620005f3565b600033905090565b6000600560009054906101000a900473ffffffffffffffffffffffffffffffffffffffff16905081600560006101000a81548173ffffffffffffffffffffffffffffffffffffffff021916908373ffffffffffffffffffffffffffffffffffffffff1602179055508173ffffffffffffffffffffffffffffffffffffffff168173ffffffffffffffffffffffffffffffffffffffff167f8be0079c531659141344cd1fd0a4f28419497f9722a3daafe3b4186f6b6457e060405160405180910390a35050565b600081519050919050565b7f4e487b7100000000000000000000000000000000000000000000000000000000600052604160045260246000fd5b7f4e487b7100000000000000000000000000000000000000000000000000000000600052602260045260246000fd5b600060028204905060018216806200029157607f821691505b602082108103620002a757620002a662000249565b5b50919050565b60008190508160005260206000209050919050565b60006020601f8301049050919050565b600082821b905092915050565b600060088302620003117fffffffffffffffffffffffffffffffffffffffffffffffffffffffffffffffff82620002d2565b6200031d8683620002d2565b95508019841693508086168417925050509392505050565b6000819050919050565b6000819050919050565b60006200036a620003646200035e8462000335565b6200033f565b62000335565b9050919050565b6000819050919050565b620003868362000349565b6200039e620003958262000371565b848454620002df565b825550505050565b600090565b620003b5620003a6565b620003c28184846200037b565b505050565b5b81811015620003ea57620003de600082620003ab565b600181019050620003c8565b5050565b601f82111562000439576200040381620002ad565b6200040e84620002c2565b810160208510156200041e578190505b620004366200042d85620002c2565b830182620003c7565b50505b505050565b600082821c905092915050565b60006200045e600019846008026200043e565b1980831691505092915050565b60006200047983836200044b565b9150826002028217905092915050565b62000494826200020f565b67ffffffffffffffff811115620004b057620004af6200021a565b5b620004bc825462000278565b620004c9828285620003ee565b600060209050601f831160018114620005015760008415620004ec578287015190505b620004f885826200046b565b86555062000568565b601f1984166200051186620002ad565b60005b828110156200053b5784890151825560018201915060208501945060208101905062000514565b868310156200055b578489015162000557601f8916826200044b565b8355505b6001600288020188555050505b505050505050565b600082825260208201905092915050565b7f45524332304361707065643a2063617020697320300000000000000000000000600082015250565b6000620005b960158362000570565b9150620005c68262000581565b602082019050919050565b60006020820190508181036000830152620005ec81620005aa565b9050919050565b608051611ba56200060f60003960006105230152611ba56000f3fe608060405234801561001057600080fd5b506004361061012c5760003560e01c806370a08231116100ad578063a457c2d711610071578063a457c2d714610325578063a9059cbb14610355578063c4d66de814610385578063dd62ed3e146103a1578063f2fde38b146103d15761012c565b806370a0823114610291578063715018a6146102c15780638da5cb5b146102cb57806395d89b41146102e95780639a6524f1146103075761012c565b806323b872dd116100f457806323b872dd146101d9578063313ce56714610209578063355274ea14610227578063395093511461024557806340c10f19146102755761012c565b806306fdde0314610131578063095ea7b31461014f578063158ef93e1461017f57806318160ddd1461019d5780631c3700d3146101bb575b600080fd5b6101396103ed565b6040516101469190611174565b60405180910390f35b6101696004803603810190610164919061122f565b61047f565b604051610176919061128a565b60405180910390f35b6101876104a2565b604051610194919061128a565b60405180910390f35b6101a56104b5565b6040516101b291906112b4565b60405180910390f35b6101c36104bf565b6040516101d091906112b4565b60405180910390f35b6101f360048036038101906101ee91906112cf565b6104e7565b604051610200919061128a565b60405180910390f35b610211610516565b60405161021e919061133e565b60405180910390f35b61022f61051f565b60405161023c91906112b4565b60405180910390f35b61025f600480360381019061025a919061122f565b610547565b60405161026c919061128a565b60405180910390f35b61028f600480360381019061028a919061122f565b61057e565b005b6102ab60048036038101906102a69190611359565b6105e3565b6040516102b891906112b4565b60405180910390f35b6102c961062b565b005b6102d361063f565b6040516102e09190611395565b60405180910390f35b6102f1610669565b6040516102fe9190611174565b60405180910390f35b61030f6106fb565b60405161031c91906112b4565b60405180910390f35b61033f600480360381019061033a919061122f565b61070b565b60405161034c919061128a565b60405180910390f35b61036f600480360381019061036a919061122f565b610782565b60405161037c919061128a565b60405180910390f35b61039f600480360381019061039a9190611359565b6107a5565b005b6103bb60048036038101906103b691906113b0565b6107f9565b6040516103c891906112b4565b60405180910390f35b6103eb60048036038101906103e69190611359565b610880565b005b6060600380546103fc9061141f565b80601f01602080910402602001604051908101604052809291908181526020018280546104289061141f565b80156104755780601f1061044a57610100808354040283529160200191610475565b820191906000526020600020905b81548152906001019060200180831161045857829003601f168201915b5050505050905090565b60008061048a610903565b905061049781858561090b565b600191505092915050565b600560149054906101000a900460ff1681565b6000600254905090565b6064600f6b033b2e3c9fd0803ce80000006104da919061147f565b6104e491906114f0565b81565b6000806104f2610903565b90506104ff858285610ad4565b61050a858585610b60565b60019150509392505050565b60006012905090565b60007f0000000000000000000000000000000000000000000000000000000000000000905090565b600080610552610903565b905061057381858561056485896107f9565b61056e9190611521565b61090b565b600191505092915050565b610586610dd6565b600560149054906101000a900460ff166105d5576040517f08c379a00000000000000000000000000000000000000000000000000000000081526004016105cc906115a1565b60405180910390fd5b6105df8282610e54565b5050565b60008060008373ffffffffffffffffffffffffffffffffffffffff1673ffffffffffffffffffffffffffffffffffffffff168152602001908152602001600020549050919050565b610633610dd6565b61063d6000610ebe565b565b6000600560009054906101000a900473ffffffffffffffffffffffffffffffffffffffff16905090565b6060600480546106789061141f565b80601f01602080910402602001604051908101604052809291908181526020018280546106a49061141f565b80156106f15780601f106106c6576101008083540402835291602001916106f1565b820191906000526020600020905b8154815290600101906020018083116106d457829003601f168201915b5050505050905090565b6b033b2e3c9fd0803ce800000081565b600080610716610903565b9050600061072482866107f9565b905083811015610769576040517f08c379a000000000000000000000000000000000000000000000000000000000815260040161076090611633565b60405180910390fd5b610776828686840361090b565b60019250505092915050565b60008061078d610903565b905061079a818585610b60565b600191505092915050565b6107ad610dd6565b6001600560146101000a81548160ff0219169083151502179055506107f6816064600f6b033b2e3c9fd0803ce80000006107e7919061147f565b6107f191906114f0565b610f84565b50565b6000600160008473ffffffffffffffffffffffffffffffffffffffff1673ffffffffffffffffffffffffffffffffffffffff16815260200190815260200160002060008373ffffffffffffffffffffffffffffffffffffffff1673ffffffffffffffffffffffffffffffffffffffff16815260200190815260200160002054905092915050565b610888610dd6565b600073ffffffffffffffffffffffffffffffffffffffff168173ffffffffffffffffffffffffffffffffffffffff16036108f7576040517f08c379a00000000000000000000000000000000000000000000000000000000081526004016108ee906116c5565b60405180910390fd5b61090081610ebe565b50565b600033905090565b600073ffffffffffffffffffffffffffffffffffffffff168373ffffffffffffffffffffffffffffffffffffffff160361097a576040517f08c379a000000000000000000000000000000000000000000000000000000000815260040161097190611757565b60405180910390fd5b600073ffffffffffffffffffffffffffffffffffffffff168273ffffffffffffffffffffffffffffffffffffffff16036109e9576040517f08c379a00000000000000000000000000000000000000000000000000000000081526004016109e0906117e9565b60405180910390fd5b80600160008573ffffffffffffffffffffffffffffffffffffffff1673ffffffffffffffffffffffffffffffffffffffff16815260200190815260200160002060008473ffffffffffffffffffffffffffffffffffffffff1673ffffffffffffffffffffffffffffffffffffffff168152602001908152602001600020819055508173ffffffffffffffffffffffffffffffffffffffff168373ffffffffffffffffffffffffffffffffffffffff167f8c5be1e5ebec7d5bd14f71427d1e84f3dd0314c0f7b2291e5b200ac8c7c3b92583604051610ac791906112b4565b60405180910390a3505050565b6000610ae084846107f9565b90507fffffffffffffffffffffffffffffffffffffffffffffffffffffffffffffffff8114610b5a5781811015610b4c576040517f08c379a0000000000000000000000000000000000000000000000000000000008152600401610b4390611855565b60405180910390fd5b610b59848484840361090b565b5b50505050565b600073ffffffffffffffffffffffffffffffffffffffff168373ffffffffffffffffffffffffffffffffffffffff1603610bcf576040517f08c379a0000000000000000000000000000000000000000000000000000000008152600401610bc6906118e7565b60405180910390fd5b600073ffffffffffffffffffffffffffffffffffffffff168273ffffffffffffffffffffffffffffffffffffffff1603610c3e576040517f08c379a0000000000000000000000000000000000000000000000000000000008152600401610c3590611979565b60405180910390fd5b610c498383836110da565b60008060008573ffffffffffffffffffffffffffffffffffffffff1673ffffffffffffffffffffffffffffffffffffffff16815260200190815260200160002054905081811015610ccf576040517f08c379a0000000000000000000000000000000000000000000000000000000008152600401610cc690611a0b565b60405180910390fd5b8181036000808673ffffffffffffffffffffffffffffffffffffffff1673ffffffffffffffffffffffffffffffffffffffff16815260200190815260200160002081905550816000808573ffffffffffffffffffffffffffffffffffffffff1673ffffffffffffffffffffffffffffffffffffffff168152602001908152602001600020600082825401925050819055508273ffffffffffffffffffffffffffffffffffffffff168473ffffffffffffffffffffffffffffffffffffffff167fddf252ad1be2c89b69c2b068fc378daa952ba7f163c4a11628f55a4df523b3ef84604051610dbd91906112b4565b60405180910390a3610dd08484846110df565b50505050565b610dde610903565b73ffffffffffffffffffffffffffffffffffffffff16610dfc61063f565b73ffffffffffffffffffffffffffffffffffffffff1614610e52576040517f08c379a0000000000000000000000000000000000000000000000000000000008152600401610e4990611a77565b60405180910390fd5b565b610e5c61051f565b81610e656104b5565b610e6f9190611521565b1115610eb0576040517f08c379a0000000000000000000000000000000000000000000000000000000008152600401610ea790611ae3565b60405180910390fd5b610eba8282610f84565b5050565b6000600560009054906101000a900473ffffffffffffffffffffffffffffffffffffffff16905081600560006101000a81548173ffffffffffffffffffffffffffffffffffffffff021916908373ffffffffffffffffffffffffffffffffffffffff1602179055508173ffffffffffffffffffffffffffffffffffffffff168173ffffffffffffffffffffffffffffffffffffffff167f8be0079c531659141344cd1fd0a4f28419497f9722a3daafe3b4186f6b6457e060405160405180910390a35050565b600073ffffffffffffffffffffffffffffffffffffffff168273ffffffffffffffffffffffffffffffffffffffff1603610ff3576040517f08c379a0000000000000000000000000000000000000000000000000000000008152600401610fea90611b4f565b60405180910390fd5b610fff600083836110da565b80600260008282546110119190611521565b92505081905550806000808473ffffffffffffffffffffffffffffffffffffffff1673ffffffffffffffffffffffffffffffffffffffff168152602001908152602001600020600082825401925050819055508173ffffffffffffffffffffffffffffffffffffffff16600073ffffffffffffffffffffffffffffffffffffffff167fddf252ad1be2c89b69c2b068fc378daa952ba7f163c4a11628f55a4df523b3ef836040516110c291906112b4565b60405180910390a36110d6600083836110df565b5050565b505050565b505050565b600081519050919050565b600082825260208201905092915050565b60005b8381101561111e578082015181840152602081019050611103565b60008484015250505050565b6000601f19601f8301169050919050565b6000611146826110e4565b61115081856110ef565b9350611160818560208601611100565b6111698161112a565b840191505092915050565b6000602082019050818103600083015261118e818461113b565b905092915050565b600080fd5b600073ffffffffffffffffffffffffffffffffffffffff82169050919050565b60006111c68261119b565b9050919050565b6111d6816111bb565b81146111e157600080fd5b50565b6000813590506111f3816111cd565b92915050565b6000819050919050565b61120c816111f9565b811461121757600080fd5b50565b60008135905061122981611203565b92915050565b6000806040838503121561124657611245611196565b5b6000611254858286016111e4565b92505060206112658582860161121a565b9150509250929050565b60008115159050919050565b6112848161126f565b82525050565b600060208201905061129f600083018461127b565b92915050565b6112ae816111f9565b82525050565b60006020820190506112c960008301846112a5565b92915050565b6000806000606084860312156112e8576112e7611196565b5b60006112f6868287016111e4565b9350506020611307868287016111e4565b92505060406113188682870161121a565b9150509250925092565b600060ff82169050919050565b61133881611322565b82525050565b6000602082019050611353600083018461132f565b92915050565b60006020828403121561136f5761136e611196565b5b600061137d848285016111e4565b91505092915050565b61138f816111bb565b82525050565b60006020820190506113aa6000830184611386565b92915050565b600080604083850312156113c7576113c6611196565b5b60006113d5858286016111e4565b92505060206113e6858286016111e4565b9150509250929050565b7f4e487b7100000000000000000000000000000000000000000000000000000000600052602260045260246000fd5b6000600282049050600182168061143757607f821691505b60208210810361144a576114496113f0565b5b50919050565b7f4e487b7100000000000000000000000000000000000000000000000000000000600052601160045260246000fd5b600061148a826111f9565b9150611495836111f9565b92508282026114a3816111f9565b915082820484148315176114ba576114b9611450565b5b5092915050565b7f4e487b7100000000000000000000000000000000000000000000000000000000600052601260045260246000fd5b60006114fb826111f9565b9150611506836111f9565b925082611516576115156114c1565b5b828204905092915050565b600061152c826111f9565b9150611537836111f9565b925082820190508082111561154f5761154e611450565b5b92915050565b7f746f6b656e206973206e6f7420696e697469616c697a65640000000000000000600082015250565b600061158b6018836110ef565b915061159682611555565b602082019050919050565b600060208201905081810360008301526115ba8161157e565b9050919050565b7f45524332303a2064656372656173656420616c6c6f77616e63652062656c6f7760008201527f207a65726f000000000000000000000000000000000000000000000000000000602082015250565b600061161d6025836110ef565b9150611628826115c1565b604082019050919050565b6000602082019050818103600083015261164c81611610565b9050919050565b7f4f776e61626c653a206e6577206f776e657220697320746865207a65726f206160008201527f6464726573730000000000000000000000000000000000000000000000000000602082015250565b60006116af6026836110ef565b91506116ba82611653565b604082019050919050565b600060208201905081810360008301526116de816116a2565b9050919050565b7f45524332303a20617070726f76652066726f6d20746865207a65726f2061646460008201527f7265737300000000000000000000000000000000000000000000000000000000602082015250565b60006117416024836110ef565b915061174c826116e5565b604082019050919050565b6000602082019050818103600083015261177081611734565b9050919050565b7f45524332303a20617070726f766520746f20746865207a65726f20616464726560008201527f7373000000000000000000000000000000000000000000000000000000000000602082015250565b60006117d36022836110ef565b91506117de82611777565b604082019050919050565b60006020820190508181036000830152611802816117c6565b9050919050565b7f45524332303a20696e73756666696369656e7420616c6c6f77616e6365000000600082015250565b600061183f601d836110ef565b915061184a82611809565b602082019050919050565b6000602082019050818103600083015261186e81611832565b9050919050565b7f45524332303a207472616e736665722066726f6d20746865207a65726f20616460008201527f6472657373000000000000000000000000000000000000000000000000000000602082015250565b60006118d16025836110ef565b91506118dc82611875565b604082019050919050565b60006020820190508181036000830152611900816118c4565b9050919050565b7f45524332303a207472616e7366657220746f20746865207a65726f206164647260008201527f6573730000000000000000000000000000000000000000000000000000000000602082015250565b60006119636023836110ef565b915061196e82611907565b604082019050919050565b6000602082019050818103600083015261199281611956565b9050919050565b7f45524332303a207472616e7366657220616d6f756e742065786365656473206260008201527f616c616e63650000000000000000000000000000000000000000000000000000602082015250565b60006119f56026836110ef565b9150611a0082611999565b604082019050919050565b60006020820190508181036000830152611a24816119e8565b9050919050565b7f4f776e61626c653a2063616c6c6572206973206e6f7420746865206f776e6572600082015250565b6000611a616020836110ef565b9150611a6c82611a2b565b602082019050919050565b60006020820190508181036000830152611a9081611a54565b9050919050565b7f45524332304361707065643a2063617020657863656564656400000000000000600082015250565b6000611acd6019836110ef565b9150611ad882611a97565b602082019050919050565b60006020820190508181036000830152611afc81611ac0565b9050919050565b7f45524332303a206d696e7420746f20746865207a65726f206164647265737300600082015250565b6000611b39601f836110ef565b9150611b4482611b03565b602082019050919050565b60006020820190508181036000830152611b6881611b2c565b905091905056fea264697066735822122094b87645317b65f1e1f1eb360cdba871024e80a83181f04428bbb7563ec8188164736f6c63430008110033",
  "linkReferences": {},
  "deployedLinkReferences": {}
}